:020000040000FA
:1000000000400020AD8F0100E98F0100EB8F01005F
:1000100000000000000000000000000000000000E0
:10002000000000000000000000000000ED8F010053
:100030000000000000000000EF8F0100F18F0100C0
:10004000F38F0100953F0000F1960100F38F01004E
:10005000F38F010000000000AD900100F38F01005C
:10006000B9F10000619C010065950100F38F01006A
:10007000F38F0100F38F0100F38F0100F38F010074
:10008000F38F0100F38F0100F38F0100F38F010064
:10009000F38F0100998B0100658C010049F300008A
:1000A00059F30000F38F0100000000000000000081
:1000B0000000000000000000000000000000000040
:1000C00010B5064C2378002B07D1054B002B02D02E
:1000D000044800E000BF0123237010BD2001002070
:1000E000000000006C8A0300044B10B5002B03D005
:1000F0000349044800E000BF10BDC04600000000F6
:10010000240100206C8A0300164B002B00D1144BF5
:100110009D46402292029A1A924600218B460F4633
:100120001348144A121A28F033FF0F4B002B00D04B
:1001300098470E4B002B00D0984700200021040068
:100140000D000D48002802D00C4800E000BF20F050
:10015000A9FC2000290028F0B6FC20F0EFFBC046E7
:100160000000080000400020000000000000000027
:1001700018010020E02F0020000000000000000017
:10018000032230B502400121002A04D1084C056841
:100190000B00A54209D00B00034006D1002A04D170
:1001A000036804481B1A58424341180030BDC0463A
:1001B0008CE8020008BB020010B50400FFF7E0FF66
:1001C000012200280AD1032302002340022B05D17B
:1001D00003480440063C2200541EA241100010BDFA
:1001E000070080FF044B88600B60044B08004B60E5
:1001F0000023CB607047C046109B0200CB18020062
:1002000010B502F055FB084B42680848D318594214
:100210004B41B0215B428B4305495B18054908F00F
:1002200043FA0CF0CBFEC0463AFDFFFF8CAA020059
:10023000C602000046FE0200F7B504000E0001935E
:1002400001208B180A0000210093009B934212D8D2
:100250002725002900D0053D224F2A003900200023
:1002600026F0BDFE009B9E4214D32A0039002000D8
:1002700026F0B5FEF7BD1378272B08D0223B5D4250
:100280006B41DBB20132002BDFD02725E4E70023EE
:100290000100F7E73278AA4205D12A00124920006E
:1002A00026F09DFE1AE011495C2A14D01F2A09D9B4
:1002B0007F2A15D0019B002B02D053B2002B07DB05
:1002C0003900ECE70A490A2A05D00A490D2A02D06A
:1002D000092A05D10849200026F0C0FD0136C1E7F2
:1002E0000649DCE7800203007F020300830203006B
:1002F00086020300890203008C0203008F020300C0
:10030000194B70B506000C0098420FD14968A068DF
:1003100011F0C2F9051E09D0200026F0FBFF0023D2
:10032000ED00236006331D43280070BD102026F029
:1003300054F86168050081600660A06811F08EF9CC
:1003400063686860591C2368994208D1A368EB6010
:100350000023EA68A9685354A3602360E4E7A06817
:1003600026F059F8E860F3E7D89E020070B5040063
:100370000D00002A05D011F0C1F9C3000620184372
:1003800070BD11F089F90028F7D12A002100024838
:1003900021F073F9F4E7C046D89E020010B50A00B8
:1003A0000100024821F069F910BDC046F891020031
:1003B000094B10B50340062B01D1C00810BD8307BF
:1003C00008D1064B02689A4204D18168C06811F0D6
:1003D00095F9F3E7FFF714FF070080FFD89E0200AE
:1003E000064B10B50340062B03D1C00825F01EFCB8
:1003F00010BD8368C0680B60FAE7C046070080FF45
:10040000F0B50F00002589B0110006001C0038006F
:10041000009503232A0012F0DDF80E20AF420FD022
:10042000012F0FD102AA102104A815F0AFFD2168F9
:1004300002A82A0002F054FA04A93000FFF760FF76
:1004400009B0F0BD2068830722D1164B02689A429A
:100450001ED104A9FFF7C4FF134B05002068034019
:10046000062B13D1C00825F0D2FB0400002C04D1C8
:100470000499280011F0F2F804001020049F25F0E0
:10048000ACFF06608760C5604460D9E74468EDE76B
:1004900004A9012202F0AEFC002205990498FFF79E
:1004A00065FFCDE7F8910200070080FFF0B58DB041
:1004B0000400039102F0FCF904A906002000FFF7F4
:1004C0008FFF039B01902F489A0705D11B68834239
:1004D0000AD02D4A934207D0C3680022029301211B
:1004E00003AB029CA0470390002406AA05A9039829
:1004F00002F068FB2500059BA3420ED829000025C9
:1005000008A826F0F6FE0A9C059BAB4221D808A954
:100510003000FFF7F5FE0DB0F0BD069BA700D859DF
:1005200002F0C6F9B04202D018480DF081FD002C4F
:1005300001D0049BED18069BD859154B0340062BA0
:1005400005D1C00825F068FB2D180134D3E7806879
:10055000FAE7002D06D02000049A019928F0FCFC4F
:10056000049BE418069AAB00985807A9FFF738FFD8
:10057000079A0100200028F0EFFC079B0135E418E2
:10058000C2E7C04640E8020038C60200BC020300D1
:10059000070080FFF0B58BB0049008680D0006924C
:1005A000079302F085F90400686802F081F90600FB
:1005B000A04202D06868FFF723FE08A92868FFF769
:1005C0000FFF040009A96868FFF70AFF089A059061
:1005D000A3180393049B2700022B19D9AB681D496C
:1005E0008B4206D0012130000091210005F0CCFBA8
:1005F0000700049B032B0BD0EB68164A934207D0ED
:100600000122210000923000089A05F0BDFB039002
:10061000039B059AD91B069B38000093099B21F088
:100620000DF8002806D1079B0138002B0CD00A4892
:100630000DF03AFB094B9E4208D10100200022F048
:10064000C5FB4400012020430BB0F0BD041B640037
:10065000F8E7C046B8B50200A8020300D89E020021
:10066000F0B5070087B008680D0002F021F904A971
:1006700006002868FFF7B4FE05A904006868FFF7C4
:10068000AFFE03902000022F07D901230093AB682F
:10069000049A2100300005F077FB059A041B049BA7
:1006A000A418064D9C4205D8039928F046FC002862
:1006B00000D1034D280007B0F0BDC0467CE8020021
:1006C00084E8020073B50D00060069462868FFF74C
:1006D00087FE01A904006868FFF782FE0100022E70
:1006E00002D908480DF0D2FC019A0098064D8242CA
:1006F00006D8801A201828F020FC002800D1034DCD
:10070000280076BD960203007CE8020084E802001F
:10071000F0B58FB0079010680C00160002F0C8F812
:100720000690012C31D0706802F0C2F8069B984206
:1007300002D07068FFF764FD0DA97068FFF750FEE6
:100740000D9B089009930DA93068FFF749FE0D9B9A
:100750000B900493079B012B1CD1049B5D1E01236E
:100760005B420A9300242700049B03940593059B96
:10077000002B13D1039B002B23D1214B069A0E2073
:100780009A4200D01F480FB0F0BD072309931E4BBB
:100790000893D8E7012300250A93E3E70B9B099907
:1007A0005A1901230898009320F048FF002816D119
:1007B000039B002B19D1079B002B09D12F00049B11
:1007C0005C1E049B0134E21B934212D13068DAE7CD
:1007D000079B2C00012B0AD001232F0003930A9BB7
:1007E000ED18059B013B0593C1E72C00F7E7039F3C
:1007F000E7E70B9B0698D91920F03FFFC3E7C046F7
:10080000D89E0200E891020015030300F0B589B0FC
:10081000049008680D0002F04BF80400686802F0CC
:1008200047F80700A04202D06868FFF7E9FC06A974
:100830002868FFF7D5FD060007A96868FFF7D0FD17
:10084000069A0590B3180393049B3400022B19D920
:10085000AB681E498B4206D001213800009131005F
:1008600005F092FA0400049B032B0BD0EB68174AA7
:10087000934207D00122310000923800069A05F019
:1008800083FA03900025079BAB4212D1039B200003
:10089000191B22F0AAFA013045000120284309B0B3
:1008A000F0BD0599200028F048FB002808D101354B
:1008B0003400079A039BA6189E42F2D96D00ECE71C
:1008C000200022F07AFA0600F2E7C046B8B502002E
:1008D00010B50100014820F0C2FF10BD0B2E020030
:1008E00010B50100014820F0BAFF10BD1D2E020016
:1008F000F7B50600080001A9FFF772FD019B05008E
:10090000002B01D11348FEBD134B04009E4207D1BA
:100910000027019A631B9A4211D8002F07D1F1E7F3
:100920000E4B9E42F4D0019A631B9A4201D80C48A8
:10093000E9E72078B04701340028F4D1E2E72078D5
:1009400004F03EF9002803D02078B047071ED9D024
:100950000134DEE77CE80200294C0000414C000035
:1009600084E8020010B501000148FFF7C1FF10BD87
:10097000A94B000010B501000148FFF7B9FF10BDF9
:10098000C14B000010B501000148FFF7B1FF10BDD9
:10099000D94B000010B501000148FFF7A9FF10BDB9
:1009A000294C000010B501000148FFF7A1FF10BD60
:1009B000414C0000F0B585B006000C00170001F0B6
:1009C00077FF694605003000FFF70AFD0600042F97
:1009D00023D10098A30715D1114B22689A4211D157
:1009E00001AA210011F0B2F8002802D10D480DF043
:1009F0004DFB0199029A2800521A711820F03DFE11
:100A000005B0F0BD002301002200280002F010F91B
:100A1000335C01205B001843F2E70020F0E7C0469A
:100A2000E4A20200A4FE020070B51D008EB00029F1
:100A300000D174E018683B4C03002340062B05D01E
:100A4000830726D1384B02689A4222D10239012904
:100A500062D80AA9FFF7C4FC060028680440062CE7
:100A600015D1C00825F0D3F80400002C04D10A9950
:100A7000300010F0F3FD040010200A9D25F0ADFCBD
:100A80002A4B85600360C66044600EB070BD446848
:100A9000EBE7012940D80122104210D04410210078
:100AA0000AA826F026FC0C9B0021220018000193C6
:100AB00028F06EFA0AA91D48FFF722FCE5E703A912
:100AC00021F092FE002805D0049A0399174820F0DF
:100AD000D4FDDAE7286802F0EDF81021002800D0F4
:100AE000411006A826F0F4FB0AA928680CF0ACFC1B
:100AF000040020000CF00AFD002801D106A9DAE765
:100B000001F0BEFFFF2802D909480DF0CDF8C1B2AF
:100B100006A826F03DFCECE706480DF089FA0648E9
:100B2000B3E7C046070080FFD89E0200F89102009C
:100B300071FE02008AFE0200E891020073B5040013
:100B4000080001A91600FFF74BFC0500042E06D192
:100B50000300019A0749200026F041FA73BD0649B7
:100B6000200026F07BF90123019A29002000FFF7DD
:100B700063FBF3E7010303009C6F03000A001B4BB8
:100B800073B51A4005000C000340062B0CD1062A51
:100B900004D1441A60426041C0B212E0C00825F09E
:100BA00036F80600606805E04668062AFAD1C808EB
:100BB00025F02DF8002E05D0002803D0B04201D03A
:100BC000002076BD69462800FFF70AFC01A9050050
:100BD0002000FFF705FC009A019B01009A42EFD12B
:100BE000280028F0AAF944426041D5E7070080FFB9
:100BF000084B07B50340062B08D0830704D10268D1
:100C0000054B92699A4201D0FFF7FAFA01A9FFF762
:100C1000E7FB0EBD070080FFB91100000A4B13B5BA
:100C200003400C00062B08D0830704D10268074B51
:100C300092699A4201D0FFF7E3FA01A9FFF7D0FBCE
:100C4000019B236016BDC046070080FFB91100005C
:100C5000F0B59BB00B900591089210210EAA12A836
:100C6000099315F093F9059B089A934208D30B9AC0
:100C700012AB13CB13C21B6813600B981BB0F0BDF3
:100C8000059B19785D1C7D290ED1089BAB4208D9C4
:100C9000059B59787D2904D112A826F079FB05958A
:100CA00007E0BC480DF000F87B2906D012A826F01A
:100CB0006FFB059B01330593D5E7089BAB4216D923
:100CC000059B59787B29E7D02B007D2903D021296A
:100CD00001D03A290DD100252E001A78212A11D0F1
:100CE000002206921AE0089A01339A4201D1AA48DA
:100CF000D8E71A787D2A03D0212A01D03A2AF2D1E6
:100D00001E00EAE708995A1C91421CD95A780692AB
:100D1000723A012A17D802339942E8D900211A7889
:100D200005913A2A1FD15A1C5B7805927D2B1DD163
:100D3000089B059A9342DAD90027059B1B787D2BE7
:100D400017D09648AEE79648ACE719787B2905D1CD
:100D50000132013308998B42F7D3C8E77D29F8D1D6
:100D6000013A002AF5D1059F0593E6E7059B01228C
:100D7000F0E7002D48D000232878169303F02CFFCD
:100D800000283DD0099B1B680793002B01DD854897
:100D900088E716AA3100280020F038FC209A169B1C
:100DA000013A04009A4203D87F49804823F068FF43
:100DB000219A01339B009D580122099B52421A60DF
:100DC000B44231D27A480DF061F90134B44204D210
:100DD00023782E2B01D05B2BF7D1611B0122280039
:100DE000FFF7C4FA002205000100229807F06EFF09
:100DF000002807D129006F4822F04FFB0CF0DEF8E5
:100E00002C00E3E74568DBE7099B1B68002B01DA50
:100E1000694847E7209A013A9342C5D201332199A4
:100E20009A005558099A1360002F00D0A6E1069B3E
:100E30003C00002B04D0069C733C631E9C41E4B232
:100E400010AA102116A815F0A1F82900220010A858
:100E500001F046FD16A95948FFF752FA01235B42FB
:100E600005000D931093002F00D18FE00BF058FE7A
:100E7000229B059A0293219B39000193209B16A87F
:100E80000093099BFFF7E4FE16A826F06FFA0026F0
:100E9000179B0400C3180A9303780693B34208D043
:100EA000474F1900380028F0AFF8B04200D16EE18A
:100EB000013423782B2B4ED000272D2B02D0202B52
:100EC00001D1043701342378232B02D1133B1F4374
:100ED00001342378302B07D1069B002B01D13D3301
:100EE0000693002E00D130360DAA0A99200020F07A
:100EF0008DFB037807902C2B04D10C3B1F43030080
:100F000001330793079B1B782E2B06D1079810AA55
:100F100001300A9920F07AFB0790079B1C78002C7F
:100F20001BD02100274828F06FF8002803D0079B2A
:100F30005B78002B11D02448B4E63100380028F04B
:100F400063F8002804D033000234069E0693B0E70D
:100F500006900600ADE70227B4E716A826F0DAF9F6
:100F6000069B002B08D12800FFF726F93C230693A7
:100F7000002801D002330693002E00D1203606232C
:100F80001F4229D0732C23D110488BE63C003E0031
:100F9000E9E7C046CFFF020010000300280003006D
:100FA000F7FF02004C0003009600030080A7020038
:100FB000AF000300BCA70200CC000300D89E0200D3
:100FC000160103001B0103002B0103004401030071
:100FD000632C01D1714865E6069B3D2B1FD05E2B2B
:100FE0001FD03C2B01D13B3B1F432800FFF7C8F823
:100FF00000282DD0632C50D026D8472C13D8452C50
:1010000026D2002C40D0252C22D0280021F0D5FB60
:10101000220003006249634807F046FBEEE64023E6
:10102000E2E78023E0E7582C53D0622CEDD1002377
:1010300003930D9B022202936123019600972900DE
:101040000EA813F08BFF34E6672C17D8652C1BD342
:101050002800FFF7B1F800286CD0002C56D06E2C79
:1010600054D0472C3FD8452C41D2252C50D02800B5
:1010700021F0A3FB220003004B49CCE76F2C1AD0D0
:10108000782C26D06E2CC0D1002303930D9B0196A3
:101090000293009761230A22D1E7280001F0F0FCB7
:1010A0000D9B16A90870012201933B0000960EA823
:1010B00013F0F8FEFDE5FB0602D580239B001F43DD
:1010C000002303930D9B019602930097612308224E
:1010D000B5E70022230003920D9A173B0292019676
:1010E00000971022ABE72300653B022BBFD82800F6
:1010F00001F02AFD109B220002930D9B011C01931D
:101100003B0000960EA825F025FFD2E56724EEE708
:101110002800802401F018FD244919F029FD109BB6
:10112000640002930D9B3C430193011C0096230035
:101130006622E7E7069B3D2B01D11D48B2E5002C56
:1011400001D0732C13D116A92800FFF767FD109B5F
:101150000100169A002B00DA1092109B9A4200D9D7
:1011600016930D9B00960193169A3B009FE728006B
:1011700021F023FB220003000E494CE7069B002BC5
:1011800000D058E601235B420D9310936EE666781B
:10119000002E00D0D1E606968BE6C0467001030013
:1011A000A301030004AB0200D40103000000C84205
:1011B000080203003D020300F0B5A1B005000C00D9
:1011C0000D920A2800D0E4E10DAB0F930123073DF7
:1011D0001093059215403CD11368BF4A934206D143
:1011E0000FAA10A9059824F0B4FC059502E0BB4AAB
:1011F0009342FAD1109B11A907930F9B20000893EB
:10120000FFF7EEF8002309900A93A30705D1B44A2B
:1012100023689B1A5A425A410A9214AA102118A80C
:1012200014F0B4FE119A00279446099B099C63446C
:101230000493049BA3420FD8079BAA48BB4229D121
:101240000A9BA948002B00D0A54818A9FFF758F819
:10125000BAE100230593CDE72178252904D018A809
:1012600026F096F80134E4E7049B661CB34202D8EA
:101270009E480CF019FD6178252904D118A826F0A4
:1012800087F83400EEE70025282915D1059BAB42ED
:1012900002D197480CF0CCFEA01C06003378292B15
:1012A00023D1311A0122FFF761F8010005980FF0F0
:1012B000EFFB012705000136002334004022002601
:1012C000302104200B9320330693049BA34213D8B0
:1012D00000231293049BA34231D923782A2B70D187
:1012E000079BBB4221D88348D4E7049BB34201D873
:1012F0008148BEE70136D1E723782D2B03D12C3B63
:101300001E430134E1E72B2B01D1293BF8E7202BC9
:1013100001D10643F5E7232B04D0302BD8D1164357
:101320000691EEE710230B93EBE77B1C0C93089BD5
:10133000BF00F85801F0A4FB0C9F12900134012368
:101340005B421393049BA34292D923782E2B17D18F
:10135000049B601C83428BD963782A2B38D1079B6E
:10136000BB42C0D97B1C0C93089BBF00F85801F00E
:1013700087FB0C9F13900234049BA34200D877E7AD
:10138000002D06D1079BBB42ADD9089ABB009D58E2
:1013900001372278672A45D8652A00D3B8E0582A51
:1013A0005DD01DD81300453B022B00D8B0E0099B4F
:1013B0005249E41A00941300514807F075F90BF0F4
:1013C000FDFD200012AA049920F020F90400B6E7E0
:1013D000002313AA0499139320F018F90400CBE713
:1013E000632A49D0642AE2D103222B001340022B46
:1013F0000AD1444B2B40062B06D0FF23DB05E8180F
:1014000090430BF02DFC0500139B0A220393129BC3
:1014100000960293069B01936123290014A813F000
:101420009DFD1FE7732A16D8722A00D380E0692A2F
:10143000DAD06F2ABBD10B9B002B02D084239B00F8
:101440001E43139B00960393129B08220293069B54
:1014500001936123E1E7752AC6D0782AA7D113004A
:10146000139A173B0392129A0292069A01920B9AD0
:10147000164300961022D0E7224B2B40062B05D0B6
:10148000AB0716D1184B2A689A4212D11CA9280022
:10149000FFF7C4FB1C9A0100012A01D01A48F9E6A3
:1014A000129B019320230093330014A813F0FAFC3D
:1014B000D8E62800FEF764FE00280BD0280001F0D3
:1014C000DFFA129B1CA908700193202301220093CC
:1014D0003300EAE70D48DDE638C60200B8C5020071
:1014E000F89102009AFF0200D89E0200D5FE020089
:1014F000E7FE020014FF0200FEFE020065FF02008C
:1015000004AB0200070080FF3BFF020054FF020013
:10151000280001F019FB139B22780293129B011CF7
:101520000193069B14A80093330025F013FD99E660
:1015300016AA10211CA814F029FD23781A00723A6B
:1015400051424A41D2B2722B09D00A9B002B06D0DD
:10155000AB0704D1594B2968994200D104222900D4
:1015600016A801F0BDF9139A1D9B002A00DA139307
:10157000139A9A4200D91A00129B1E9901932023B4
:1015800014A80093330013F08DFC1CA825F0C2FEB4
:1015900068E6080001F08CF916A907002000FEF7A4
:1015A0001FFF0590072D22D118A90D9801F0A6FA6A
:1015B00003000020834207D01899814206DC404B8B
:1015C00040489F4200D10E2021B0F0BD169B1CA8C0
:1015D000594325F08EFE1E9B01210493009305982C
:1015E000189B169A24F076FB1CA938002EE60D985D
:1015F00001F05EF9B8420FD11CA90D98FEF7F0FE7C
:101600001C9E04901D2D17D8192D4ED2052D21D0CA
:10161000122D1FD00020D7E7284B0D989F4209D1EB
:1016200001221CA921F0E0F80028CDD01C9B1D9EB2
:101630000493E7E7FEF7E4FD1F2DEBD10123049AA5
:1016400000931699330005981FF0F8FF00282AD060
:101650001D48B9E7169B002B07D10D9801F028F91A
:10166000B84202D10D9C2000AEE7002EFBD0169BA5
:101670001CA8F11825F03DFE1E9B169A059918002E
:10168000069327F069FC169A1E9B944605936344C3
:1016900018003200049927F05FFC1CA93800FEF7FF
:1016A0002FFE0400DFE709488EE70096049B169A98
:1016B0000599280024F044FBC8E7C046F8910200D1
:1016C000D89E0200E891020084E802007CE8020053
:1016D000F0B5050087B008680C0001F0E9F800904B
:1016E000012D28D96668022D26D0A06801F0C8F91E
:1016F00005000021080025F098FA04A9019020684F
:10170000FEF76EFE049B0400C7183E4B9E4241D17B
:10171000BC422AD2207803F047FA00280FD1002DCE
:101720000FD121003A1B00981FF0A7FF010001987C
:1017300012F0B2FB19E0334E01256D42D9E70134B6
:10174000E6E72600307803F02FFA002802D10136B0
:10175000B742F7D82100321B00981FF08EFF01001E
:10176000019812F099FBB74209D8019807B0F0BD73
:101770000136B74203D1002DF7DD013D06E0307898
:1017800003F012FA0028F3D1002DF6DCBE42ECD2B1
:101790003400C4E7300001F08BF8009B984202D07F
:1017A0003000FEF72DFD05A93000FFF737FA059B45
:1017B0000390002B13D114480CF076FA3E00210060
:1017C000321B00981FF059FF0100019812F064FBD2
:1017D000BE42CAD2059BF418002D00DD013D260053
:1017E000059B0293002DE9D0029BF3189F42E5D39D
:1017F000029A0399300027F0A0FB0028DFD00136C1
:10180000F0E7C046B8B502006F020300F0B507006C
:101810008BB00D00022807D829003800FFF758FFC9
:10182000050028000BB0F0BD086801F041F808A9D8
:10183000049028686E68FEF7D3FD0190A86801F057
:101840001FF9041EE8DB431C18000021059325F056
:10185000ECF92F4B05009E4202D12E480CF016FCED
:1018600009A93000FFF7DAF9099B0690002B02D195
:1018700029480CF019FA089A019B94466344029394
:10188000A3000393099F029BDE1B002C0BD0019B3E
:10189000B34208D83A000699300027F04EFB0028E2
:1018A00021D0013EF1E7EB68A6009F19019A029B47
:1018B00001999A1A04981FF0E0FE3860002CB0D00D
:1018C000059B1C1BEB68A70099193A00180027F02C
:1018D0004CFB6B6800211A1BEB689200D81927F0AB
:1018E00057FBAC609DE7039AEB689446634407930B
:1018F000029BF1199A1BD21B04981FF0BEFE079B96
:10190000013C1860039B0296043B0393BAE7C04670
:10191000B8B50200060303006F02030070B50C00A7
:101920008AB0050004A920681600FEF759FD0023BF
:101930000593049B0100C218029605AB06A801940A
:101940000095FFF785F906A90248FEF7D9FC0AB011
:1019500070BDC046D89E020010B5040008001FF0FC
:10196000EBFF0300002C03D0012C06D0002003E085
:101970000348002B00DC034810BD40002043FBE778
:1019800084E802007CE8020043684B6083688B6057
:10199000C3680800CB60014B0B60704718940200CD
:1019A00030B5040087B00D000020042A25D12000A6
:1019B0001FF0C2FFAB0722D1184B2A689A421ED1F2
:1019C00003AA290010F0C2F8102024F006FD144BE1
:1019D000E2680360039B616853435B184360049BA8
:1019E0006168019353435B18059983604A43C26061
:1019F000002902DAE2689B1A836007B030BD002339
:101A000001002A00206801F013F9E3685843636875
:101A1000C018012340001843EFE7C046E4A20200CB
:101A2000DC930200F0B50E00002785B01100039092
:101A30001D00012203233000009710F0CBFD102081
:101A400024F0CBFC039B0400036001234760C360C8
:101A500028689E4205D101F013F8A060200005B06F
:101A6000F0BD01F00DF86060686801F009F8A06051
:101A7000032EF3D1A86801F003F8E0600028EDD14F
:101A800001480CF011F9C0461C03030070B50D00AD
:101A90004A688B680849040025F0A1FAEA68012A1F
:101AA00004D10649200025F0D9F970BD0449200071
:101AB00025F095FAF9E7C046260303001005030058
:101AC00033030300136810B51400002B05D1A529BA
:101AD00004D1406823F02AFF206010BD7423FF3337
:101AE000994201D18068F5E7024B9942F5D1C0686F
:101AF000F0E7C046C50200000023820708D1006855
:101B0000044A0133904203D0034BC01A434243417D
:101B1000180070479094020054940200044B8860AF
:101B20000B60044B08004B600023CB607047C0463D
:101B3000109B02001D1A020030B585B00500080098
:101B400069460BF081FC040020000BF0DFFC011E55
:101B500002D1064805B030BD2B1D0022180021F02F
:101B600087FD0028F0D00248F4E7C04684E8020070
:101B70007CE8020070B50500102024F02EFC040063
:101B8000074B696808C021F069FDAB68E968A3608C
:101B90006B68E0689A0027F0DFF9200070BDC0464E
:101BA00090940200F7B504000D0000268B0704D1C5
:101BB0000B68214E9E1B73425E41AB68002B0AD11D
:101BC000002E03D01D49200025F048F91C492000B3
:101BD00025F044F9F7BD002E03D01A49200025F066
:101BE0003DF91949200025F039F9002701236A68D9
:101BF000BA4207D81549200025F030F9002EE9D067
:101C00001349E4E7BA000192EA68B9005258002A81
:101C10000FD0042A0DD0002B03D10E49200025F04F
:101C20001DF9EB68B90059580122200000F058FE58
:101C300000230137DBE7C046549402007103030020
:101C4000780303007E03030089030300FC090300FB
:101C5000100503008B03030010B5830707D1044B65
:101C600002689A4203D10349034823F009F810BDE2
:101C70005494020039030300DCA5020070B50D0086
:101C80000400FFF7E9FF2900201D012221F0F0FCEC
:101C9000004870BDB8B5020070B50D000400FFF734
:101CA000DBFF2900201D022221F0E2FC004870BD6C
:101CB000B8B5020070B5060008680D000124FFF7F2
:101CC000CBFFB44201D3044870BDA300E958286893
:101CD0001FF042FE0134F4E7B8B5020070B50D0004
:101CE0000400FFF7B9FF280000210BF0ADFB050051
:101CF00028000BF00BFC011E01D1044870BD231D10
:101D00000322180021F0B4FCF2E7C046B8B5020087
:101D100010B50400FFF7A0FF201D21F037FD01489A
:101D200010BDC046B8B5020010B501221FF045FE37
:101D3000004810BDB8B5020070B504000D00FFF7F3
:101D40008BFF201D0222290021F092FC002804D1E3
:101D5000034821F09CFB0BF031F9024870BDC046EE
:101D6000BCA70200B8B5020010B50400FFF774FF6D
:101D7000201D21F0ECFC002803D10249024822F08A
:101D80007FFF10BD5B030300BCA70200F8B50D0088
:101D900001280BD0002803D002280BD0002004E03B
:101DA0008B681448002B00D11348F8BD8B685B008A
:101DB0001843FAE7032400200C408442F5D10F4B6E
:101DC0000E6820009E42F0D14F68A74203D1012047
:101DD00076003043E9E7EA68A3009958002906D065
:101DE000042904D002200BF0C9F940103618013440
:101DF000EBE7C04684E802007CE80200549402004D
:101E0000F8B5040010200D0024F0E7FA0600094B95
:101E1000210008C60700300021F020FCA4002C1986
:101E2000A54201D13800F8BD012202CD300021F0D9
:101E30001FFCF5E790940200F7B504000E00171E92
:101E40002CD0FFF709FF194DB4422DD00021080016
:101E5000FFF7D6FF0021050030000BF0F5FA0190E6
:101E600001980BF053FB061E0CD1002F1CD0E0682C
:101E700024F0E2FA6B686360AB68A360EB680B4D1B
:101E8000E36011E0201D0022310021F0F1FB002869
:101E9000E6D031002800FFF7F1FEE1E78842D5D116
:101EA00020001FF06CFD05002800FEBDB8B5020043
:101EB000F0B589B004000390029101920027FFF76A
:101EC0001BFEB84207D13A0003AB012122481FF0A4
:101ED000CAFD04000137029D00262800FFF70CFE12
:101EE000B04207D1320002AB01211B481FF0BBFDFD
:101EF00005000136019B002B05D00023AA68019341
:101F0000A36893420DD0154B06940493144B05938C
:101F10000023079304A81FF081FD011E12D10123A5
:101F20000193002F02D02000FFF7F2FE002E02D016
:101F30002800FFF7EDFE019B0A48002B00D10A485C
:101F400009B0F0BD2B1D0022180021F091FB0028E4
:101F5000E0D10190E5E7C04690940200109B02009A
:101F60001D1A020084E802007CE8020073B50C0030
:101F700015000091019200268B0704D10B68394EA1
:101F80009E1B73425E4132001F2868D817F082FF03
:101F90002810176767671C676767676767212D34B5
:101FA0006767673B676767676740464A5358675D7F
:101FB000290020001FF0F4FC0400200076BD290059
:101FC00020001FF045FDF7E7694602201FF021FDC4
:101FD000F2E7002E04D069460220FFF76BFEECE723
:101FE000290020001FF0D2FCE6E729002000002E87
:101FF000E0D0FFF773FEE0E729002000FFF71CFFA9
:10200000002EDAD1D8E7694602201FF0D6FCD3E7CC
:10201000012229002000FFF74BFFCDE7012221001C
:102020002800F8E72800FFF767FD002815D0A3680F
:10203000AA68934211D1290020001FF045FDBBE79B
:10204000290020001FF038FDB6E7201D00222900DE
:1020500021F00EFB044C0028AFD1044CADE7002466
:10206000ABE7C0469094020084E802007CE80200DE
:10207000F0B50F00496885B005001600002901D0B1
:10208000002A05D1390028001FF02FFE05B0F0BD51
:102090000F321309C91800931FF098FD0F22A8688A
:1020A000B9687C68324000D11032009B1E19234B66
:1020B000F3185B00C018214B0290E3185B00CB18AB
:1020C000019010209C4621000023801A002921D174
:1020D000C3401A48029A84466400141B2380009B64
:1020E0005B00E41A009B023463445A00200026F08F
:1020F0004FFF002E04D07300023BE35A002B1BD08D
:1021000001216E603B78DB07DA0F2B788B4313439A
:102110002B70BBE762461288013913431A00C24094
:102120000393019B1A80019A039B023A01920222B7
:1021300052421B049444C9E7013EDAE7FFFFFF7FE8
:10214000F0B54B681500526889B006000C00934248
:1021500001D22C000D000121227863680A4201D1CE
:102160002A781140C91830001FF030FDB36822787A
:102170000193A36817000293636829789C46AB68B3
:102180004F400393012318001F408B43069363467F
:10219000904302006046591E019B04936B681B1A12
:1021A00007934B1C18D163465900019B5918002F07
:1021B00002D001230B80023101981FF08AFC01211B
:1021C000706022782B7853403278DB078A43DB0F2C
:1021D0001343337009B0F0BD029B13481B881B18D2
:1021E0009B180593079B5B188B421AD8039B039A95
:1021F0001B8802321B180392069A01399B18059A14
:102200005A4092B21B0CD7190693049A059B17806B
:102210001A0C049B3F0C02330493029B023302937B
:10222000BFE7014BE8E7C046FFFF0000F0B506003E
:1022300095B0069353680D00591C049200931FF04B
:10224000C5FC049B00215B68B0685A1C52000093D7
:1022500026F09EFE00237360049B28005B68591CD7
:1022600000931FF0B3FC049928001FF03EFDAB68FB
:102270006F680193069B9B680393069B5B680293C0
:10228000B3680793029BBB422DD82ED3039A390023
:1022900001981FF0DEFC002823D10123079A686013
:1022A00013807360049B1A78069B1B785A400123A5
:1022B0001A4214D03278134333706B68002B0ED05F
:1022C000012111A849421FF02FFD11AA3100300051
:1022D0001FF031FF069A290028001FF02CFF15B0CF
:1022E000F0BD002801DA0023DBE7824A029B9B183D
:1022F0005B009C460022039B634405931B8800926D
:102300001AB2002A63DA0022019B7C001A537B1C5C
:10231000102709936B60019BA01C00991B18089360
:10232000791A019B0A9108998B4256D3059B009A12
:102330001B8893400893029B012B0AD91022039B10
:1023400000996344023B1B88521AD340089A1A43EF
:102350000892019B029A1C19099B9B1A654A73609B
:102360009B18079A5B00D3180A93634602330E93B7
:102370006B680B930B9A029B934239D313005D4A0F
:10238000102194460024019A63445B00D318009AFC
:10239000891A019A9A4200D89EE07368002B07D0F0
:1023A000544A07999A185200525A002A00D19DE0C7
:1023B0006B68002B00D175E74E4A01999A185200BC
:1023C000525A002A00D06DE7013B6B60F0E7009A9B
:1023D0005B0001329BB292B291E71988009F08001E
:1023E000B84002431A800A9A0233D1408AB29AE76F
:1023F000A31E20880D931B8800041843089917F02A
:102400005DFD0E9B0022E31A0C931900039B0590BF
:102410009C4609928C4212D823889A4234D3D31A0C
:102420005A42190C9BB222805A1E9341CA18002AA4
:102430002CD003990C9B8C4600210F0041E0099B96
:10244000009F180C63461B88BB4018436B460990DD
:102450009F8C059B5F430B889F4203D2D81B0F9034
:1024600090420CD8D31AFF187B420B80BBB23A0CB7
:102470005F1EBB41D218022302319C44CAE70F9B66
:102480009A1A0A800022F6E79A1A22800A9B059A75
:10249000023B5A800A930B9B0D9C013B6B6067E7E4
:1024A000380C09906046009F0088B840099F074398
:1024B00018884118B8B24118022019808444090CC8
:1024C00002339C42ECD823885918059B2180013B9C
:1024D000090C521A0593AAE71A88009F1000384188
:1024E0008A402043188094B2023B52E7013B73605C
:1024F00053E7C046FFFFFF7F436870B55A000023D3
:1025000084680A4DA218944206D30278D20700D5F7
:102510005B4201200B6070BD023AAB4203D81688C3
:102520001B043343EFE70020F5E7C046FF7F0000C0
:1025300010B54A68014924F052FD10BDB3520300A2
:1025400010B50400002906D0044B8A6B03600968AB
:10255000002306F015F920000AF030FD14AA02004D
:10256000F0B5040087B0039202936618002A06D0E3
:10257000023A222A03D935480BF096FB0134B442C3
:1025800029D2207802F010FB071EF7D123782B2BDD
:102590001CD10134311B200003AA20F0E0FA2318DB
:1025A0001C0000250193B44217D3002F00D06D42C8
:1025B00001236D001D43019B9C422FD12449039AA6
:1025C000244806F071F80299FFF7BAFF2D2BE1D1EC
:1025D00001340127DEE70027DCE723781A00303AD0
:1025E0000092092A07D9202213431A00613A192AB6
:1025F000DBD8573B00930399009B9942D5D928001B
:1026000005F004FD002816D1039B5D43009BED18E7
:102610006B006B400FD40134C5E70134B44205D2DE
:10262000207802F0C1FA0028F7D1C7E7B442C5D13B
:10263000280007B0F0BD019B3A000593F11A05A8E8
:10264000039B23F099F9059C0500B4E7C50303003B
:10265000E803030004AB0200F0B504008BB008935C
:10266000431804920193019B9C4200D3F6E020782A
:1026700002F09AFA071E38D123782B2B37D1013478
:102680000590019B9C4200D3EAE0202322781A4364
:10269000692A33D10199A21C914200D8E6E0627800
:1026A0001A436E2A00D0E1E0A2781A43662A00D0CD
:1026B000DCE0E21DE51C914214D9E2781A43692A54
:1026C00010D122791A436E2A0CD162791A43692AF1
:1026D00008D1A2791A43742A04D1E2791343792BE1
:1026E00000D10535FF26F6051BE00134BBE7059058
:1026F0002D2BCAD12C3B01340593C2E76E2A2ED173
:102700000199A21C914200D8B0E062781A43612A74
:1027100000D0ABE0A27813436E2B00D0A6E05D4E54
:10272000E51C059B002B02D080231B06F618A54252
:102730007BD159498CE03D002B786F1C1800303854
:10274000092834D8022E15D10A23029A53431B18A4
:102750000293019BBB42EED8002304934DE000227C
:10276000079202924D4A250006920022002603920B
:102770000993E1E718F072FD051C012E0DD10699B1
:1027800018F0F6F9011C039817F080FE43490390F6
:10279000069818F0EDF90690DBE74149039818F028
:1027A000E7F9291C17F072FE00260390D1E7002EEE
:1027B00003D12E2B03D10126CBE7022E16D0099A86
:1027C0001A43652A12D1019BBB4256D96B782B2B39
:1027D00005D1AF1C019B9F42ABD00226B9E7022670
:1027E0002D2BA8D12C3BAF190793F3E7049A002AAD
:1027F00004D0202213436A2B13D13D00079B002BEA
:1028000002D0029B5B420293029818F0DDFC011C8F
:1028100023481BF099F9039918F0AAF9049F061CA4
:102820007FE700230493E9E70135019B9D4205D230
:10283000287802F0B9F90028F6D17AE7019B9D4289
:1028400000D076E7089B002B01D1002F1AD0154944
:10285000154820F029FE1099FFF772FE002305931A
:1028600000230393002325000493CCE7059B002B52
:1028700000D15EE72500002656E7019BBB4200D150
:1028800057E769E7032302209E43084B3043C018F3
:102890000BB0F0BD0000C07FAB030300CDCCCC3D3E
:1028A000000020418E03030004AB02000000808082
:1028B000074BC2070AD4074A074B0240062A05D035
:1028C0000322064B0240022A00D00368180070471A
:1028D00008BB0200070080FFD89E020084AE020001
:1028E00070B50D00040016000AF01AF92800FFF771
:1028F000DFFF8368002B04D03200290020009847B6
:1029000070BD42680249200024F069FBF8E7C04628
:102910005405030010B50A0001000248FFF7E0FF6C
:1029200010BDC046D4EA0200F7B5050008000E004D
:1029300020F0BEFD002810D001AA6946300005F045
:1029400053FF009B002B08D01749280024F086FA7B
:10295000009CE71EA400002F09DA310028000222A3
:10296000FFF7BEFF2800114924F078FAF7BD019B5C
:1029700028001A1911000C3A08390B6812680C4922
:1029800024F02DFB019B1B19043B1A68002A06D179
:102990000649280024F062FA033F0C3CDBE70549B6
:1029A000280024F01CFBF7E712050300276503004D
:1029B000360503004B05030010B50400FFF778FF50
:1029C000054B0069984203D0431E9841C0B210BD28
:1029D000200022F08BF8FAE77DC3000070B50500F7
:1029E0000C0001208D4203D0214B9D4201D10020DB
:1029F00070BD9942FBD001231D4204D01942F6D18B
:102A00002B000D001C002A001A4B1A40062A05D084
:102A1000AA0711D1184A296891420DD12340062BEB
:102A200005D0A307E3D1144B22689A42DFD12100DD
:102A30002800FEF7A3F8DBE72340062BD7D0A30737
:102A400003D10D4B22689A42D1D02800FFF730FF06
:102A50008369002BCBD0220029001B209847002837
:102A6000C5D0064BC01A43425841C0B2C0E7C04669
:102A7000B8B50200070080FFD89E020084E802007B
:102A8000104B10B5984219D00F4A0123904217D02D
:102A9000184201D0184110BD830706D10B4B0268C4
:102AA0009A4202D10DF0AEFCF5E71FF086FE084910
:102AB0000200084805F0F8FD0AF080FA0020EAE775
:102AC0001800E8E77CE8020084E8020008BB020086
:102AD000D90403008CAA020010B5C30705D48307EC
:102AE00006D1054B02689A4202D122F05CFF10BD6C
:102AF000FFF7C6FFFBE7C04608BB02000F4B70B5EF
:102B00000D000124984204D100230B60230018001B
:102B100070BD0B4B984201D10C60F7E703002340D6
:102B200002D040102860F1E78207F0D1054A016821
:102B30009142ECD10DF066FCF4E7C0467CE802005F
:102B400084E8020008BB0200184B10B5984228D058
:102B5000174B984227D0C30703D5401018F034FB19
:102B600010BD0323184206D1124A0168914202D1D6
:102B700022F022FFF4E702001A40022A08D10E4A8E
:102B80000240062A04D0FF22D20580189843E7E7C6
:102B90001FF013FE09490200094805F085FD0AF0FF
:102BA0000DFA0020DCE7FE208005D9E77CE8020072
:102BB00084E8020008BB0200070080FFBF04030096
:102BC0008CAA020010B583070CD103680A4CA342FB
:102BD00002D122F0BEFF10BD084CA34202D124F066
:102BE0003BF8F8E71FF0E9FD05490200054805F04C
:102BF0005BFD0AF0E3F9C04638C6020040E8020077
:102C00006F0403008CAA020013B50C0001A9FFF7A2
:102C1000D9FF019BA34206D022000349034805F0D7
:102C200043FD0AF0CBF913BD9204030004AB02008C
:102C3000F7B505000C0017001E00D3070ED557107E
:102C40000197019B002B1FDA1B190193002E1DD049
:102C5000002B15DA002301930198FEBD01A9100095
:102C6000FFF74CFF0028ECD138006C681FF0A5FD81
:102C7000220003000B490C4805F016FD0AF09EF9EE
:102C8000A342E9D90194E7E7002EF9D1019B002B7B
:102C900001DBA342E0D36A680449054805F004FD5E
:102CA000ECE7C046350403008CAA02005904030077
:102CB00080A7020010B50400830710D10D4B0268F5
:102CC0009A420CD10C4B0340062B06D1C00822F0CF
:102CD000A3FF43000120184310BD8068F9E72000DE
:102CE000FFF7E6FD4369181EF6D021000120984742
:102CF000F2E7C046F8910200070080FF164B70B55E
:102D0000040000209C4203D0144DAC4201D10120AC
:102D100070BD134B00209C42FAD00126264086420B
:102D200003D06010431E98410DE02000FFF7C0FD66
:102D30004369002B09D0210030009847002804D0B7
:102D4000401B43425841C0B2E2E72000FFF7B2FF08
:102D50000028DCD00138E5E77CE8020084E80200C6
:102D6000B8B5020010B50400FFF7A4FF002809D190
:102D700020001FF022FD04490200044805F094FCE5
:102D80000AF01CF910BDC046F10403008CAA020031
:102D900070B504000D001600FFF78AFD036A002BD2
:102DA00005D03200290020009847002818D10D4D89
:102DB0002000002E08D11FF000FD02000A49280063
:102DC00005F072FC0AF0FAF8042E04D11FF0F5FCAD
:102DD00006490200F3E71FF0F0FC05490200EEE7A8
:102DE00070BDC0468CAA020059050300840503008B
:102DF000A505030010B51FF0F7FC002802D102481A
:102E00000BF016F910BDC0461004030070B50500A4
:102E100000291CDB032905D80800002417F03AF824
:102E2000181806060123023999430C00FE26B52125
:102E30000902314328001FF0F1FC002C04D00549A1
:102E4000280021431FF0EAFCAE61EC6170BD002454
:102E5000F226ECE780B0000010B50D4C206824F09D
:102E600034FD002807D00B4B1B78002B03D12068C2
:102E700003685B6898470023074A1370074A13707A
:102E80000CF000FB0CF0D4FF11F024FF10BDC04685
:102E90005C290020CB2D0020CA2D0020392E0020D7
:102EA00070B5050094B0002804D13F481DF098FE8D
:102EB00014B070BD08A80AF05BF8041E19D12E6882
:102EC000290004A801220FF037F823002200310066
:102ED00004A808F0DBFD0400032001F09FF92000A6
:102EE00021F083FE0120404201F098F90AF05EF8DB
:102EF000DEE70120404201F091F909992B48FFF7E4
:102F000013FD0998FFF7D4FC2949040009F026FBBA
:102F10000028CDD12749200009F020FB0028C7D187
:102F2000099C01AA6946200005F05EFC02AA322134
:102F300004A813F02BF8009B022B05D9019B1E4916
:102F40005A6802A824F04BF82000FFF7B1FC1B4B95
:102F5000C2689A4210D1236819495A6802A824F01D
:102F60003EF8E368002B07D05A68002A04D00022FC
:102F7000996802A8FFF7B4FC032001F04FF904A8F8
:102F800024F0F4F907F076F804A824F0C3F901203E
:102F9000404201F043F90B4B9A6C002A00D187E7BD
:102FA00000229A6484E7C04608060300D4EA0200BF
:102FB00050AA0200F8A70200350603006985000048
:102FC0003E0603007C2E0020F8B54E4C1321200055
:102FD00025F048FD2000032125F0FDFD4A4C01238A
:102FE0004A4A1321200016F0DBF8012202212000BA
:102FF00016F006F9464C200013F0B6FA454F38603B
:10300000200013F0CDFC444D2860102025F03AFF3D
:10301000040029680025414E3A68330014F006F890
:103020003F4B1C603F4809F05BFDE120C00009F008
:1030300067FD3D493D480BF0E9FB09F0DFFF06F075
:1030400095FF02F033FC13F0F5F8300025F084F81A
:1030500022F07EFB00F074FA02F0BCFB01F0DCF918
:103060000BF022FA324C3348230088331D600CF0F9
:1030700053F80CF02FF80BF029FA2F4F3B78012B67
:103080000ED1002307211A002C4800F061FB031E1B
:103090001DD00100F820400000F0E2FCFFF700FF27
:1030A0003B78002B2AD112F043FA0028F8D02448AC
:1030B00020F028FC0CF01EF808220021214825F001
:1030C00067FF230098348C331D602560AAE7F8223F
:1030D000920211784D2909D15178502906D1F82052
:1030E00052881949400020F0DFF8D7E7012217493C
:1030F00017200AF011FD21F0A2FDD1E712F068FAC5
:10310000D3E7C0463C29002054290020A32902000F
:10311000DC290020582900205C2900206429002097
:1031200060290020004000203C2900203C010020B4
:103130007C2E0020592E0000EA00002042060300E9
:103140004A060300FC2E002004E0030030C6020003
:1031500010B5084C084A0621200014F039F8074A37
:103160000749200025F087FE00221E21054824F093
:10317000FDFF10BD642900204C96020000000020D5
:1031800089710100DC29002010B50100838801202D
:10319000A0229840054BD205D0500A7ACB8809313D
:1031A0005A4392B224F057F9014810BD0C050000B3
:1031B000B8B50200F0B50600080085B01500F1882A
:1031C000020000233068FFF733FD377A78430400AC
:1031D000002D18D0042D19D101233418A27A694684
:1031E00052001A430092627A38009A401A430192C0
:1031F000E27A9A401A430292227B9A401343039345
:103200000DF036FD0500280005B0F0BD28006A4627
:103210003900FFF7F9FC0025337AAB4213D9009B44
:10322000AF00F858FFF72CFCFF2802D907480AF036
:103230003BFD074B0F223B4113403219D318013598
:103240005872EDB2E8E7034DDDE7C0467D060300A6
:1032500001320000B8B50200F0B5080087B01100D7
:103260001A001B4B03AC00930194032323F05CF87A
:1032700003981FF00DFE676846B2A5681548002F39
:1032800003DDEB1E012B02D913480AF00DFD2800C7
:1032900078430C3023F0A1F8104BBAB2040003605D
:1032A0008680C78005726A430021093025F070FED0
:1032B0003300A0220321C133FF33D2059B00995074
:1032C00001232000B3400649535007B0F0BDC0466B
:1032D000B49602005806030071060300D49602005B
:1032E0000C05000010B50400037AC28800215A437F
:1032F000093025F04DFE2000FFF746FF004810BDC5
:10330000B8B5020070B505000C200C0023F065F87C
:10331000024B45600360846070BDC0461097020098
:1033200010B524F0BFF8014810BDC046B8B5020082
:1033300010B5C30708D483070ED10368094A934226
:1033400002D0094A934207D1FFF79AFB002801DD1A
:1033500020F0E5FA054810BDFFF7F6FB17F014FF63
:10336000F4E7C04608BB02008CE80200B8B50200D2
:1033700001220B4B10B51A600A4A51680029FCD093
:1033800000215160A1220131D2009A5859600323D3
:10339000D01718408018801022F0C8FA10BDC0461F
:1033A00000C00040FCC00040F0B5264B8BB007AC1D
:1033B0000194009303230FF03DF905AA60680221F0
:1033C000FFF722FC06AA0221A068FFF71DFC079860
:1033D000FFF7BAFB059B061C1868FFF7B5FB059BBA
:1033E000051C5868FFF7B0FB069B071C1868FFF721
:1033F000ABFB069B041C5868FFF7A6FB291C039037
:10340000301C17F0E7FC291C061C381C17F0E2FCE6
:10341000011C301C17F0D4F9211C051C039817F06F
:10342000D9FC011C281C17F0A3FB211C17F02EF857
:103430000323020002209A43034B1043C0180BB031
:10344000F0BDC046889802000000808010B50028BA
:1034500004D1044812F010FE034810BD0868FFF7BD
:103460000FFBF7E7E7030000B8B5020080235B0518
:103470001869034B1B7843438020C002C01A704771
:10348000C72D002080235B051869034B1B7843433D
:103490008020C002C01A7047C82D002070B5084DAA
:1034A000C4012B680021181922F0AAFE2868054BD8
:1034B00000197F3000781B788342F0D270BDC0467F
:1034C000F4290020C62D002010B5C3790400002B7C
:1034D00008D0064A037981791068DB01C0180130F1
:1034E00022F08EFE0023237210BDC046F429002076
:1034F00010B5124B01001A684379DB01D31818008C
:103500007F300478FF2C08D10879C0011218527856
:10351000FF2A0FD0887990420CD08A799B1801320B
:10352000D2B258787E2A01D08A7110BD00234C7126
:103530008B71FAE701204042F7E7C046F4290020EA
:1035400070B5F8248025A40223786D054D2B4CD14D
:103550002B698020E41A2B69C002E41A2969001B38
:1035600016F0ACFC2B4B2C4918702B69E218521842
:103570005D421540294B2A4A9B1A2A4A9B188022F1
:10358000520511699D4234D38020C002401B16F0C1
:1035900095FC254B641B1870E411244BE4B21C709D
:1035A000A12001230025224A22491360C0004D605A
:1035B0004B68002BFCD01358DBB2A342F7D21E4954
:1035C00001330B7001235360FFF750FF03780500B0
:1035D0001A4CFD2B0FD180235B051869184BC009CD
:1035E000C018C0012818206070BD80242B69E40237
:1035F000AFE76D18C5E7FFF745FF0378803DFD2B6A
:1036000001D12560F0E7FFF73DFFFD2122F0F8FD35
:10361000F7E7C046C82D0020FF87FFFF14010020F8
:1036200000000020788A0300C72D0020C62D00204E
:1036300000D00040FCD00040C92D0020F42900201B
:10364000FFFFFF01F7B5254B254F1A78254B1400D6
:103650001B7839680133E001405CFF2829D0013430
:10366000E4B29C4200D101249442F4D1802300268C
:103670005B051B69DB090193E30100933B68E201F1
:103680009D182B7828005A425341F61822F0CEFD9F
:10369000002810D0002304E0DA01AA5C002A0AD135
:1036A0000133019A9342F7D13868009BC01822F089
:1036B000B3FD2000FEBD0B4B01341B78E4B2013397
:1036C0009C4200D10124054B1B78A342D4D1002E8B
:1036D00002D01FF0C8F9B6E7FF24EAE7C92D0020A1
:1036E000F4290020C62D0020F7B507000D000124A5
:1036F0000E4B1B7801930E4B1E68019BA34202D216
:10370000FF242000FEBDE10171180B78FE2B09D1CA
:103710008B78AB4206D103312A00380025F00DFC2E
:103720000028EED00134E4B2E7E7C046C62D002001
:10373000F429002010B5054A03791068DB01C01890
:10374000817800220330FCF711FE10BDF42900201F
:10375000F0B585B002900D0016000393782948D883
:10376000FFF7C2FF0400002E3BD0FF2801D0FFF777
:1037700095FEFFF767FF0400FF2803D11E491F488D
:1037800021F07EFA1E4FC0013B680190FE211818FF
:1037900022F036FD3B68019AE9B29818023022F017
:1037A0002FFD3868019B2A00C018033002990EF0E3
:1037B000B9FE0C2022F011FE039A0300002A16D055
:1037C000104A1A600E4A1C7112685C71E4011419E7
:1037D000A278DE7102329A7101221A72039A5A7229
:1037E00002E03300FF28E4D1180005B0F0BD064A1E
:1037F000E7E70023F8E7C0468C06030024A902008F
:10380000F4290020A8BD020054BE020007B501A99A
:10381000FDF704FA0199FFF767FFFF2803D1044978
:10382000044821F02DFAFFF739FE03480EBDC046CB
:10383000BF06030024A90200B8B50200F7B5019243
:10384000027A04000091002A02D124480AF02CFADE
:10385000C579002D06D1224A17680279D201D25DBE
:10386000002A05D1092201251A606D422800FEBDFB
:1038700061797E22C901791808007F30A379007828
:10388000D21AFF2809D12079C00138184078FF28C2
:1038900019D0C01A824200D902000198461B9642F4
:1038A00000D91600002EE1D0009A01335019C91832
:1038B000320025F051FBA3799B19DBB27E2B04D09B
:1038C000A371AD19D4E70022E7E70023A371637960
:1038D000DB01FB187F331B786371F2E7A20603005C
:1038E000F4290020F0B585B00393037A0400029117
:1038F0000192002B02D130480AF0D6F9C379002B8F
:1039000008D02E4A03791268DB019B5C019A009271
:10391000002B25D10923039A13600A3B01930198D8
:1039200005B0F0BD7E22A379D71A009A974200D93C
:1039300017006079214E0133C001C01833683A0086
:10394000181802990EF0EEFDA379DB19DBB27E2B7D
:103950000AD0A371029BDB190293009BDB1B00932F
:10396000009B002BDED1DAE70023A371FFF76AFE8C
:103970000500FF2809D12079FFF790FD002323726D
:103980001C23039A13601D3BC8E760793368C001AC
:10399000181829007F3022F033FC3368ED015819E4
:1039A000617922F02DFC62793368D2019B187F3354
:1039B0001B786371CEE7C046A2060300F4290020FD
:1039C000002170B5080023F030F9012405000C4BEC
:1039D0001B78A34201D2280070BD0A4AE301106897
:1039E000C0180378FE2B08D1817800220330FCF741
:1039F000BDFC0100280010F04FFA0134E4B2E6E704
:103A0000C62D0020F429002073B501A9FDF706F9A1
:103A10000199FFF769FEFF2803D10E490E4821F0F6
:103A20002FF900257E260D4B1C68C301E318597839
:103A30009B780233DBB2C201A2187F321078FF28D4
:103A400004D1C81A401921F071FF76BDF31AED18A0
:103A50000023F0E7BF06030024A90200F429002098
:103A60001FB5034A034B1FF0E2FB05B000BDC04683
:103A7000F1340000C9340000044B054A05481A60BF
:103A8000054A5A6000221A817047C046FC2900206E
:103A900020030700B8B5020074696275F7B5160017
:103AA000314A0B0088321768002F02D12F480AF0E4
:103AB000FBF802212E4C2F4DE167A324E4002C5982
:103AC0002D4AE4B206343C192C4F3D68A54204D17E
:103AD0002B4B116001930198FEBD2578002832D14F
:103AE000601C002B04D12900FCF758FC01900BE06E
:103AF0005A68AA4200D92A000100186825F035FA50
:103B000001226B001A430192002E0ED062195378E5
:103B10005B423360D37811791B0209040B4391781F
:103B200052790B431206134373603E68A91D611856
:103B3000721A200025F019FA0223751B0E4A063D61
:103B40003D601360C7E7022D04D8002303600E33E5
:103B50000193D9E72100042225F0FEF9E91E201D7A
:103B60000022FCF703FCC1E77C2E00205007030075
:103B700004E100E00010004000E100E0082A00201D
:103B8000B8B502007FB5002101AA0800FFF786FF43
:103B90000A4B98420FD00121019B03905A00029BCF
:103BA0000A438B400492064A032013400B4303A9A7
:103BB00005930DF05DF807B000BDC046B8B5020032
:103BC000FEFFFF7F002213B501AC11002000FFF7BC
:103BD00065FF094B98420ED02378022B08D96378F1
:103BE000012B05D1A378002B02D1E378012B02D061
:103BF00002480AF059F816BDB8B5020030070300B4
:103C000002220B4B10B5DA6700220121094B5A61E1
:103C1000094A11615A69002AFCD0084C883420688E
:103C2000002803D022F008FC0023236010BDC0460A
:103C300004E100E0FC100040001000407C2E002059
:103C400010B5FFF7DDFF014810BDC046B8B5020052
:103C5000F8B5FFF7D5FF364C26786578063601357E
:103C60007543280022F0B9FB324A861916600022FB
:103C7000314B451988331860304B01211D60304BA2
:103C80005A608022D20511605A68002AFCD00321B4
:103C90002C4B61562C4A00259950A178043A995032
:103CA000617A083299506168284A08269950217A29
:103CB000274A284F99500121274A9D500432995094
:103CC000264A9E508122247892042243A324E400B1
:103CD0001A510224224A9C50224A9F50224F043AF1
:103CE0009F501827214A9F50214AC0279850C1222F
:103CF00092009E501F4ABF00D0591F4E0640C02060
:103D000000023043D051C0204000145014601022F3
:103D100080301C5822431A50184A55605960516827
:103D20000029FCD00021116101229A60F8BDC04633
:103D3000FC290020082A00207C2E0020F8290020E1
:103D4000FC000040001000400C0500001C050000B5
:103D500024050000FFFF00002C05000014050000F2
:103D6000340500003C05000021100100540500004E
:103D70000405000000E100E0FF00FFFFFC10004030
:103D800010B5FFF765FF014810BDC046B8B5020089
:103D900010B5FFF771FEFFF75BFF014810BDC0468D
:103DA000B8B50200F0B505008DB01600002802D0AD
:103DB00069480AF03DF9694B09AA190091C991C2F5
:103DC0001A781F7A06925A7805929A7803920322FB
:103DD0009A5604925A685B7A019202937368AB42D6
:103DE0004CD9EB000793B368EA009B181A68002AC5
:103DF0001BD0042A19D05868FEF76EFEB368EA009B
:103E000004009858FCF7D4FA0200B538FF380628A9
:103E10002ED816F03FF8040C131920262800631E34
:103E2000FA2B00D995E0E3B206930135D6E7631E7D
:103E3000FD2B00D98DE0E3B20593F6E7532C00D9B2
:103E400087E0E3B20393F0E7072C00D981E0444B0D
:103E50001B570493E9E7022C00D97AE0E3B20293FE
:103E6000E3E70194E1E7FF2C00D972E0E7B2DCE779
:103E70003C493D4804F018FC09F0A0F83B4B09AC64
:103E800088331B68002B12D1069B27722370059B79
:103E90006370039BA370049BE370019B0A93029BD6
:103EA00063722E4B07CC07C331480DB0F0BD069BA3
:103EB0002A4D2370059B637022882B889A420FD06D
:103EC000FFF79EFE039B2772A370049BE370019B88
:103ED0000A93029B63720ECC0EC5FFF7B9FEE3E7AF
:103EE0000222244B2449DA670022244B4A61013222
:103EF0001A614A69002AFCD0039809AA90700498B4
:103F00001772D07001980A9002985072134870CAC4
:103F100070C01B4A049898500398043A985002982D
:103F2000083298500198174A9850174A9F5000221B
:103F30004A6001325A604A68002AFCD000220A61B5
:103F4000C02101329A60114B013249005A501A6067
:103F5000AAE70F498DE7C046DA060300FC290020D6
:103F6000D2060300F506030004AB02007C2E0020FD
:103F7000B8B5020004E100E0FC1000400010004071
:103F80000C0500001C0500002405000000E100E015
:103F90000B070300214BF7B55A68214D002A03D0C7
:103FA00000225A600132AA601A69002A34D0002225
:103FB0001A61A323DB00E8581A4BC2B28833196890
:103FC0000C78A24201D2140008708023DB00EB5869
:103FD000012B1FD1144E154A3768A31D1268019397
:103FE000FB189A4216D3621C380024F0B5FFA923AF
:103FF000DB00EB58621CBB5415F0A0FE3368020ACC
:104000001C19E270020C2271019AA0709B18000E1C
:10401000607133600123AB60F7BDC046FC10004007
:10402000001000407C2E0020082A0020F8290020E3
:10403000F7B5314F00933B00883301921A680E00A8
:10404000002A02D12D4809F02FFE02212C4B2D4CC5
:10405000D96700232C4D636101332B616369002B09
:10406000FCD0A323DB00EB580099DBB27118994216
:1040700003D9B3423DD39B1B0093009B8837F318B1
:1040800013703B68010001331800320024F064FF14
:10409000009B002B06D03868013680191A00019960
:1040A00024F05AFF0023636001332B606368002B08
:1040B000FCD00123AB60002323612369002BFCD0DB
:1040C0000023636101332B616369002BFCD0002363
:1040D000636001336B606368002BFCD00023C02158
:1040E000022223610133AB60084B49005A501A6029
:1040F000F7BD1E000023BFE77C2E00205007030001
:1041000004E100E0FC1000400010004000E100E08D
:1041100007B501A9FCF782FD019B020003210248BB
:10412000FFF786FF01480EBDCE060300B8B50200BA
:104130001FB5012201A9FEF75DFE002301981A00B8
:104140000299FFF775FF014805B000BDB8B5020040
:10415000F0B5802787B02B4D02907F422C78002C41
:104160001CD063B2002B12DA6E787C40E4B2002ED1
:1041700014D0013CE4B2FF2C02D101350135EDE74A
:1041800004AB981D0121067005F036FFF1E704AB82
:10419000D81D0121047005F02FFFEFE705270298D5
:1041A0001FF0BDFB0124BC4227DA0025164E220079
:1041B000290030000CF01CF86B4601901B79002B95
:1041C00015D0631E1A002900300003930CF010F87C
:1041D000031E0CD12200290030000BF0D5FFFF2276
:1041E000019B290013403000621E0BF0CDFF01350A
:1041F000052DDBD10134E4B2D5E7013F002FCED14C
:1042000007B0F0BD650703001C00002010B5C820F2
:10421000FFF79EFF004810BDB8B5020010B50400BE
:10422000431C02D0024804F09DFA024B1C6010BDF2
:10423000A42E0020782E0020014B024A9A64704779
:104240007C2E0020A42E002030B507240278084DD3
:10425000A24314000222224302707F22039C416089
:104260002240D400028883602A402243028030BD6D
:1042700007FCFFFF10B50B00072401782340A14382
:1042800019437F23017004990A4C0B40D90003881D
:10429000426023400B430380039B04685905064B8F
:1042A000C90A23400B430360029B8360059BC360E4
:1042B00010BDC04607FCFFFFFF03E0FF054B10B534
:1042C000186823F0FEFA044B002800D1034B1800B5
:1042D00010BDC0465C29002084E802007CE8020092
:1042E00010B5034B186823F0F4FA024810BDC0461D
:1042F0005C290020B8B5020010B5034B186823F004
:1043000056FB21F013FB10BD5C29002010B5034BB8
:10431000186823F053FB21F009FB10BD5C29002035
:1043200010B5034B186823F050FB21F0FFFA10BDC5
:104330005C29002010B5034B186823F0FBFA21F02C
:10434000F5FA10BD5C29002030B593B00AF0D2FE1A
:10435000184C200023F0FBFE174D286812F0CEFB0E
:10436000200023F0F9FE0AF0B5FE21F0F1F91EF06D
:104370009BFC0400296803A823F099FA0F4B200046
:104380000A93039B0B93049B0C93059B0D93069B35
:104390000E93079B0F93089B1093099B0193119316
:1043A00021F03AFF200020220AA90EF0BBF80448B1
:1043B00013B030BD642900205C29002055BA11C01B
:1043C000B8B50200F8B5114D0400286823F079FA59
:1043D000002802D12000FFF7B7FF0D4B1B78002B00
:1043E0000DD10C4E3478E4B2002C08D10127286896
:1043F000377003685B689847054B34701F702868F6
:1044000012F058FC21F092FAF8BDC0465C29002059
:10441000CA2D0020CB2D0020F0B58DB01EF044FC3D
:104420000E4B02689A4217D10469416808944469A6
:104430008268C36809948469C0690A9484466C469A
:1044400005910692079308A8E0C8E0C46046206082
:104450000348006823F015FA0DB0F0BD55BA11C03D
:104460005C29002070B5137804000A3BD8B20F28ED
:1044700009D90A001048114904F016F90025636AA9
:104480001860280070BD002552781B021A43E36AA9
:10449000AB420AD1238C0025042BF2D108490648EF
:1044A00004F002F9636A1860EBE7206BA900095871
:1044B0009142E6D00135EBE714AA02008609030019
:1044C0009B090300F0B5040085B00D00100003A99E
:1044D000A26A1E0021F0DBFD002809D12A000B4949
:1044E0000B4804F0E1F8636A1860002005B0F0BDE5
:1044F0000398FEF7F1FA0300B343F7D003000096E8
:104500002A000449024804F0CFF8ECE7420903000E
:1045100014AA02005A090300F7B51F0013780E0011
:104520000A3BD9B2050021480F2904D850781B0254
:10453000184321F076FB15240378009315231C49BA
:104540001B1B0193A300CB1A190055310978009A5F
:1045500091421FD119005631427809788A4219D107
:10456000573381781B788B4214D1002B0FD1019BDC
:104570009A000F4BD05CB84208D93B0032000D497D
:104580000D4804F091F86B6A18600020FEBDC378F6
:10459000002BECD0013C002CD0D13200074906485A
:1045A00004F082F86B6A18602000EFE706860300CB
:1045B000FE090300B209030014AA0200CB0903009C
:1045C000F0B5137885B005000E00462B47D101A940
:1045D000100021F08CFD019B834240D003781A002B
:1045E0000A3A0F2A0AD802000F2331002800FFF7E9
:1045F00093FF01248440200005B0F0BDB32B2ED1E1
:1046000021F070FD040021F068FD02900378B62BC4
:1046100025D10127A73B220031002800FFF77CFFAE
:104620003C0003A98440029821F061FD039B0290A5
:104630009842E0D09D2102A821F068FD029A039BD8
:104640009A42D8D00F2331002800FFF765FF3B00C6
:10465000834002981C4321F040FD0290EEE73200B7
:104660000349044804F020F86B6A00241860C2E78C
:10467000E309030014AA0200F0B50E0087B004009D
:1046800004A930001F00019221F0D0FA019B05001F
:10469000002B0FD1A5239B009E4205D1BF2109020B
:1046A00020001EF0BBF819E0BE4B9E4200D089E00E
:1046B000BD49F5E7019B012B00D09BE00A33FF3396
:1046C0009E420DD101003A682000FFF7CBFE0100A9
:1046D00020001EF0EDF8002800D118E207B0F0BD70
:1046E000B24B9E4209D101003A682000FFF7BAFEA2
:1046F000010020001EF034F9EDE7AD4B9E420AD1D7
:1047000001000F233A682000FFF706FF8E21C0004A
:10471000C9010143C4E70378622B3BD1049B032BFF
:1047200007D0052B36D1C3785F2B33D103796E2B9D
:1047300030D101230E265B4269789E480293B30074
:10474000F31AC3181A002B3212788A4209D1AA78B8
:1047500094461A002C321278944502D12A331B78E1
:104760000293013E002EEAD1029B01332AD03A681F
:1047700029002000FFF776FE049B0200052B03D1E1
:104780002E79773E73425E413300029920001EF07D
:10479000ABF8A0E789239B009E4201D186497FE7C1
:1047A000864B9E4201D186497AE7864B9E4212D1C2
:1047B00029003A682000FFF703FFFF231B02B42102
:1047C000184215D0019B2A007F49804803F06CFFF6
:1047D000636A186082E77E4B9E42F3D13A682900F3
:1047E0002000FFF7EDFEFF231B021842EAD1BC2197
:1047F00009028EE7019B022B00D022E17B68754AFB
:104800001B780A3B0F2B48D8964212D13A68010018
:104810000F232000FFF780FE7A68060029000F238F
:104820002000FFF779FE3100020020001EF029F879
:1048300054E70022684B02929E421AD18026F6016C
:104840003A68290007232000FFF766FE7A68019086
:10485000290007232000FFF75FFE019A03003100C3
:1048600020001EF007F839E7029B013302930F2B5B
:10487000A8D0029B03229E00584B2800991924F0CF
:10488000E2FB0028F0D1EB78002BEDD1544BF65C25
:1048900080233601DB011E43D2E796421AD18026DF
:1048A00007233A6829002000FFF736FEFF23019016
:1048B00029007A682000FFF705FE0100019BB60180
:1048C0001B0231431943EBE6A026E9E7C026E7E7E0
:1048D000E026E5E7434B9E42F6D01E3B9E42F5D0D4
:1048E000414B9E42F4D0414B9E4251D0404B9E42A0
:1048F00050D0404B9E424FD03F4B9E424ED03F4BFC
:104900009E424DD03E4B9E4200D05BE705233D4A80
:104910009B009B5A290002933A6807232000FFF767
:10492000FBFD7E6803903378452B6DD1300021F07C
:1049300019FC002868D1300021F0D4FB0378A62BA5
:1049400062D105A921F0D3FB0599060021F0B9FB3E
:10495000022859D1300021F0C0FB072332000700A4
:1049600029002000FFF7D8FD029B0600DB0453D589
:104970001F233A0029002000FFF7A4FDF100039B4C
:10498000029E80011E433143F826F6003040C0E607
:104990000023BCE70123BAE7019BB8E70323B6E78E
:1049A0000423B4E7ED02000030BF00000D02000058
:1049B000110200000308030072B600002502000087
:1049C00062B60000A3020000BD08030014AA0200A2
:1049D0009E0200008D020000030200000709030090
:1049E000060903001E020000CB0200007202000054
:1049F0007302000075020000C6020000C70200003A
:104A0000C902000008F902002A004449444803F0A2
:104A10004BFE636A1860D5E66B4608229B5E002B4E
:104A200007DA3E233A0029002000FFF74BFD40083B
:104A3000A4E77C233A0029002000FFF743FD80080B
:104A40009CE7019B032B00D0BCE69F239B009E426A
:104A500022D100263A68072329002000FFF75CFDD9
:104A60007A680190072329002000FFF755FD1F23D6
:104A70000290BA6829002000FFF724FD019F029BE5
:104A8000374381013943DE00314309E68026360190
:104A9000E0E780267601DDE7224B9E42F6D0224BEE
:104AA0009E42F6D0093B9E422BD1C02607233A688E
:104AB00029002000FFF730FD072301907A682900C4
:104AC0002000FFF729FDBA687601137802900A3BAF
:104AD0000F2B0DD8072329002000FFF71DFD029B97
:104AE000D900019B194331430F0081013943D7E5B8
:104AF0008023DB001E43290007232000FFF7E2FC90
:104B0000EDE70A4B9E4200D05CE6D026CEE708498E
:104B10000348646A1EF0C8FC2060DFE592080300C9
:104B200014AA02007D02000009020000CB0200006E
:104B3000F2080300F7B50E0007001100300021F065
:104B4000C0FA0025040004281ED97C6A13491448C1
:104B50001EF0AAFC206000242000FEBD7378000235
:104B6000184321F05EF80236019024F065FA02281D
:104B700011D1019B1B78722B0DD1019B5A782B0010
:104B800030339A4207D10135A542E5D030780A3852
:104B9000C3B20F2BE2D97C6A0249D8E72D08030083
:104BA00014AA02006008030000237F2803D8034BE7
:104BB0001B5C9B07DB0F18007047C046520A0300BE
:104BC00000237F2803D8034B1B5C1B07DB0F180057
:104BD0007047C046520A030000237F2803D8034BC6
:104BE0001B5C5B07DB0F18007047C046520A0300CE
:104BF00000237F2803D8034B1B5C5B06DB0F1800E8
:104C00007047C046520A030000227F2808D8054B8F
:104C10000132195C0C23194202D15F3842424241F1
:104C200010007047520A030000237F2803D8034B6B
:104C30001B5CDB06DB0F18007047C046520A0300FE
:104C400000237F2803D8034B1B5C9B06DB0F180057
:104C50007047C046520A0300F0B58FB00692426812
:104C6000099394460368040002939B680430009300
:104C7000634403600E001EF0E1F8059060681EF0CA
:104C8000F3F8431C63600378A24A0193831C6360BA
:104C9000437800210093C31C63608378B5000393BD
:104CA000031D6360C3782000049323001033A360C6
:104CB000059B14309A1893000793C318E360079B71
:104CC0000C331A00089324F063F9099B009A5B19CE
:104CD0000B93059B9B1A039A0A939D1A2F1D009A0A
:104CE000BF00E7190123B24264D2019A1A4207D1E8
:104CF0003300009A8849894803F0D6FC08F05EF931
:104D0000009B03359900099BAD005918009B65195C
:104D1000F01A0BF0ADFF009E043F6860002296423F
:104D200000D070E0069B002B03D1019B1B0700D431
:104D3000D6E002230026019A1A400992B24204D01A
:104D4000069820F096FE060038600027029B0B9D17
:104D5000DB680893069B9F425ED10A9B029805334D
:104D60009B00E1180A00049D0C30002D00D080E06B
:104D7000049A92008918079A2032A2188A4200D910
:104D800080E0143B0693009B089A9B00D31807937E
:104D9000039B9D4200D27FE065680DA80D951EF033
:104DA0004DF828180578461CFF2D00D0A7E0666056
:104DB0000FB0F0BD019A1A4205D00335AD00584B33
:104DC0006519043F6B60069B002BA7D1019B1B0755
:104DD000A4D4009B049A9A1AB24212D8009A049B57
:104DE000991A32008900009B9A4297D29300029D43
:104DF00058182818089D0069EB1AE3181861013249
:104E0000F1E7330076E7099908989300C958C31A67
:104E1000E3181961013282E7009B039800221B18F6
:104E20009C462968944505D8099B002B1CD1CA08CB
:104E30003C490EE0089B90001858884212D1059B0F
:104E4000013B9B1A9B00E3185A69002A05D0CA0847
:104E50003549324803F028FC50E76A685A61013747
:104E6000083577E70132DDE76A68300020F03AFE66
:104E7000F5E71668002E02D1AE0086591660013D96
:104E8000043272E7081D0968002903D1121A921032
:104E90002649DEE7010071E7069AAB00D71AE71949
:104EA0003A69002A16D1082000996E180899B600B0
:104EB0008E190799C958019B03420DD0049B029893
:104EC00004339B001858043003F000FF002803D07F
:104ED00043683B6101355BE732681549D208B8E7A2
:104EE000039B002B02D0134809F0A2F8019B9B07FB
:104EF00000D451E7039820F0BCFD38604CE7ED4347
:104F0000059BED18AD00651968690BF00BFA686137
:104F1000300047E7FDFFFF3FD20A03008CAA0200E2
:104F200030C602003A0B03000B0B03005B0B0300BF
:104F30008D0B0300BD0B03000139C9B2054B4018AE
:104F400080301970044A03781370044AD25C044B11
:104F50001A707047CD2D0020CE2D0020A31D030018
:104F6000CC2D00200131C9B2054B4018803019709A
:104F7000044A03781370044AD25C044B1A707047D9
:104F8000CD2D0020CE2D0020A31D0300CC2D002010
:104F9000074B984206D9074B1818074B4118C918F8
:104FA00008787047054B18184118054BF7E7C046BD
:104FB000A4920000E41B03005B6DFFFFF80B0300ED
:104FC0000083FFFF03002022F0B57F254F265F27D7
:104FD000803304001A7089B003007F3019780A000A
:104FE0002A406F2A26D90A003A401900013381313C
:104FF0000A709842F2D17F22B64B1A702300643AAD
:10500000FF331A70E4320292531CB348DBB20493AC
:105010000370E31880331B78B0490B705B2B0ED103
:105020009B22029B0A700133DBB20370E254012021
:1050300009B0F0BD5F2AD8D90A003240D5E72E2B3F
:1050400013D10232D2B20270A21880321278A14873
:105050000270A348825C0120024206D1029A0B70C2
:105060001218D2B20292A354CEE10220994A1370D0
:105070009B4AD25C104000D0A1E0002A15D196488E
:10508000203203780A70E31880331A70029B0133D0
:10509000DBB202930370782B01D8E254B4E19B2376
:1050A000029AA354049B0B70C1E716007F2552B2ED
:1050B000AE430E70002A03DB8A4B8B4A1A60B7E7B7
:1050C000413B8A4ADBB28A49D25CCB5C1202134371
:1050D0000393039B002101339BB218000393FFF756
:1050E00057FF0306F5D5012300260127794D2B70C4
:1050F00039000398FFF74CFF7B1CDBB20193282893
:105100005FD1002E00D02F702D780135EDB229002F
:105110000398FFF73DFF6B1CDBB2292854D17F2693
:10512000069306990398FFF733FF069B304001333F
:10513000DBB23D284AD10026684B049A1870664BB2
:105140001A70644B019A1A70049B0593059B019990
:10515000E31880331B7803980793FFF719FF079B29
:105160009842B6D1019B0133DBB20193AB422FD100
:10517000002E02D0584B059A1A70049D013FFFB2D1
:10518000544B390003981F70FFF702FF534E03067C
:1051900000D509E1504B7F211870514B1B5C1A0060
:1051A0005BB28A433270002B18DA4B4B013DEDB2F3
:1051B0001D70631980331B789842DFD089E74D4B0F
:1051C00086E70126019F93E71D00A0E70693A8E765
:1051D000059B01260133DBB20593B7E73070202829
:1051E0001BD0232825D02E282CD0262832D040288A
:1051F0004ED05E2856D02B285CD03A2800D02EE125
:10520000202629002000FFF797FE344A1378334008
:105210001370B3D0304B1D78F3E729002000FFF75F
:105220008BFE0023F356002B00DA52E72A4B1D7841
:10523000A4E729002000FFF77FFE402233781342C5
:10524000F4D146E729002000FFF776FE33781B07EC
:10525000ECD43EE729002000FFF76EFE10223378E1
:1052600013403370E2D11C4B1B78E1188031097870
:105270003170482900D02CE7013B1749DBB20B7095
:10528000E31880331B789343432B00D021E7CDE70D
:1052900029002000FFF750FE0422337813403370BA
:1052A000C4D116E729002000FFF746FE33789B069D
:1052B000BCD40EE7084B013DEDB21D706519803579
:1052C0002B78452BB2D010229343492B00D000E716
:1052D000ACE7C046CE2D0020CD2D0020CC2D0020E7
:1052E000A31D030004000020E40B0300291E03009B
:1052F0000F1E0300A59200006B1C924ADBB21370D4
:10530000E31880331B7890490B70452B36D1A81CCD
:10531000C0B2231880331B788C4E33708C4EF656F7
:10532000002E02DB874B1D783FE010700B70522B74
:10533000F8D0532BF6D0442BF4D04C2B08D10335A6
:10534000EDB21570651980352B78592BEAD0C0E67F
:10535000462B00D0BDE6EB1CDBB21370E3188033A4
:105360001B780B70552B00D0B3E60435EDB21570E9
:10537000651980352B784C2BD4D0AAE6492B00D068
:10538000A7E6AB1CDBB21370E31880331B780B70FD
:105390004E2B00D09DE60335EDB2157065198035B2
:1053A0002B78472BBED094E6059D019B03980133D3
:1053B000DBB20193019A654B11001A70FFF7E8FD0B
:1053C000019B069A5F4F934220D100257F272E0034
:1053D00001990398FFF7DCFD03003B403D2B04D00F
:1053E000029A0132D2B20292A354019A0132D2B28D
:1053F000010600D4A2E0002E02D0544A0199117097
:10540000514A1370059B0493049AFDE5504B7F218C
:105410001B5C4D4E1A005BB28A4338703270002B11
:1054200008DA0135EDB2631980331B783D70834291
:10543000BBD04EE63070202816D023281ED02E2850
:1054400026D026282DD0402848D05E2851D02B28A1
:1054500058D020263A2864D0252800D14CE73D4B6F
:105460003D4A00201A60E3E529002000FFF77AFD9D
:105470000023F356002B00DB54E72AE62900200026
:10548000FFF770FD40223378134200D04AE720E650
:1054900029002000FFF766FD33781B0700D541E7A0
:1054A00017E629002000FFF75DFD10223378134036
:1054B000337000D036E73B78E118803109783170DD
:1054C000482900D005E60133DBB23B70E318803396
:1054D0001B789343432B00D0FBE523E729002000F2
:1054E000FFF740FD042233781340337000D019E7F2
:1054F000EFE529002000FFF735FD33789B0600D546
:1055000010E7E6E50135EDB23D70651980352B7881
:10551000452B00D106E710229343492B00D0D8E554
:1055200000E729002000FFF71DFD074A13783340EC
:10553000137000D139E7034B1D78F2E70192012681
:1055400046E7C046CD2D0020CC2D0020CE2D0020DA
:10555000A31D030004000020EE0B030070B504003F
:105560000800FDF78DFA0500431002D00F4808F03F
:105570009BFB0F49200003F04DFD002807D0A0221F
:1055800003216379D205C133FF339B009950012376
:1055900062799340A022D205002D04D0A121C90038
:1055A0000448535070BD0449FAE7C046901E0300FA
:1055B000F4AF0200B8B502000C05000070B505009C
:1055C0000800FDF75DFA0B2303410400DB0702D45A
:1055D000094808F069FB2800084903F01BFDFF2279
:1055E000A40092001440A0226B79D205C133FF338E
:1055F0009B0003489C5070BD621E0300ECAF02008C
:10560000B8B5020010B50C49040003F003FDA02258
:10561000D205002805D004216379C133FF339B00F4
:10562000D150A223DB00D0586379D8400123184021
:1056300020F07CF910BDC046ECAF020010B50400AC
:1056400003F0B4FC0A4B984205D00A4B984202D0B2
:10565000200003F0B9FCA0226379D205C133FF33E7
:105660009B0098580007800F20F060F910BDC046DD
:10567000ECAF020004B00200032370B50B4004003D
:105680000800022B14D1194B0B40062B10D0FDF74C
:105690005BFA17F073FB0022154B15F01FFE17F095
:1056A000FDFA144B0500984205D9134808F0FCFA9E
:1056B000FDF7E6F9F5E71149200003F0ABFC0028FF
:1056C00007D0A02203216379D205C133FF339B00A9
:1056D00099506079290008F027FF002D03D108496F
:1056E000200003F097FC074870BDC046070080FF0C
:1056F0000000E03FFF0300006F1E030034B0020013
:10570000E4AF0200B8B5020013B50A49040003F083
:1057100081FC05216846615613F06CFC684613F065
:105720008FFCA0230021044ADB00D15020F0FEF8BA
:1057300016BDC046E4AF02000070004010B508007E
:10574000FDF79EF9FA239B00584308F0C9FE002894
:1057500002D0024808F0A8FA014810BD531E030009
:10576000B8B5020010B50800FDF78AF908F0B8FED8
:10577000002802D0024808F097FA024810BDC0463F
:10578000531E0300B8B5020010B5040003F00EFC70
:105790000C4988420DD00C4B98420AD0200003F0EF
:1057A00039FCA02200216379D205C133FF339B006D
:1057B0009950200009F0B0FE044B002800D0044BA3
:1057C000180010BD1CB0020004B0020084E8020002
:1057D0007CE80200A0230C220249DB055A50243148
:1057E0005A5070474407000010B50400FDF760F8F8
:1057F000064B984208D0064B984205D0054B98427C
:1058000002D0054808F014FC200010BD449E0200A0
:10581000FC9C0200389D0200431E0300F8B5214E97
:105820003568696801292DD9AA684B1ED05C0A2801
:1058300028D1002B01DC1C0009E0581E145C0A2C46
:10584000F9D00300F5E7105D202802D10134A14210
:10585000F9D8002B0BDD601C814208D1581E0028AE
:1058600005D00138175C0A2F0CD0202FF7D0521822
:10587000023AE31A14789B083A3C624254411C19DC
:10588000002C00D1F8BD084F04223900280021F077
:1058900003FD0421380004F0A1FB3369013C04330B
:1058A0003361EDE70C2A0020F784030010B52022B5
:1058B0000021024823F06CFB10BDC046DC2E002006
:1058C000084B10B5426818600020986018750138C0
:1058D000D86008005A601A6199611EF013F8FFF74A
:1058E0009DFF10BD0C2A0020F8B503780400002BA2
:1058F0001ED0104D286E002804D0210023F092FB0A
:10590000002815D0200023F097FB471C380020F01A
:1059100071FD061E0CD03A00210023F01DFB2A0069
:10592000054B5C321968043B99609342FAD12E66AC
:10593000F8BDC0467C2E0020F42E0020F0B5B84CF7
:1059400002002068A568436885B00193002D00D04F
:10595000FDE0531E042B11D8636801998B4200D1DE
:1059600095E0012A00D12AE1022A07D12369626861
:10597000934200D94FE10122524288E0032A00D12C
:1059800085E0042A00D12FE1052A00D107E1062A8B
:105990000ED12369019A9342AD416D42002DEADD9B
:1059A0002368290098682369C01804F017FB1FE0DA
:1059B0000B2A21D1019B2269991A21F02DFD236820
:1059C000019A5B68934204D213002269981A04F08A
:1059D0003BFB2268236951689068C91AC01804F01B
:1059E000FDFA236858682369C01A401B04F01AFBAB
:1059F00023695D192561BEE70E2A13D1E368002BE8
:105A0000B9DB013BE3606268019B991A21F004FD58
:105A1000E368002B18DB1633824A9B00D318996881
:105A200020680FE0102A16D1E368062BA3DC5D1C6A
:105A30007C4A17339B00D318996800299BD0636870
:105A4000E560436021F0ADFC63682269D61A2268E4
:105A50005568ED1A0AE0152A0CD12369626861685D
:105A60009A1A21F0E1FC236962689E1A0127002E30
:105A70002FDCA4E70D2A0DD16B481DF043FF2068F1
:105A800021F074FC6368C018FFF72EFF002210009D
:105A900005B0F0BD01231B2A62D0082A01D07F2A5D
:105AA00020D121696268914200D864E700238668AA
:105AB000B618F75C202F13D101339F18B942F8D8DC
:105AC0000426032B00DC033E891B320021F0ACFCD2
:105AD0000127300004F0A6FA23699E1B266178E0B6
